:020000040000FA
:04000000ACEF7FF0F2
:10FF2E0007C001F008C002F0120007C005F008C0BB
:10FF3E0006F0120007C003F008C004F01200B9EC7E
:10FF4E007FF0A8EF7FF000EF00F0096A000EF86E68
:10FF5E000001A6EF7FF0300ED36E040ED26E000EAF
:10FF6E009B6E1200DFEC7FF0B2EC7FF0C0EC7FF006
:10FF7E001200080EB86E900EAB6E240EAC6E190EFB
:10FF8E00AF6E000EB06E000E076E000E086E9CEC8B
:10FF9E007FF0000E076E000E086EA1EC7FF0000ED3
:10FFAE00076E000E086E97EC7FF0000E096E1200C1
:10FFBE00000E8D6E000E8C6E000E896E000E8A6E17
:10FFCE00040E8B6E070E966E000E926E9368B80E30
:10FFDE00946E000E956E0F013B693C0E3A6F3F0E0C
:10FFEE00396F070E3C6F2F0E386F000E616EF18E5B
:02FFFE001200EF
:020000040020DA
:08000000FFFFFFFFFFFFFFFF00
:020000040030CA
:0E000000FF281F3CFFBF85FF0FC00FE00F4021
:00000001FF
